:020000040000FA
:100000004FEF00F00CA000D0120000018795FF0E0A
:10001000926F040E126E0C0E176E000E156E12000B
:10002000310E106E180E0E6E120000018C810B8CBA
:100030000B8E1200000161516153E86AD8B4010EC1
:100040000001696F6951FF0B13E06051050F6A6F82
:100050006AC060F06051FA0E605DE86AD8A000D016
:1000600000016B6F6B51FF0B02E0010E616F14D04A
:1000700000016051FB0F6C6F6C6F6CC060F06051E1
:10008000050E605DE86AD8A0010E00016D6F6D512C
:10009000FF0B02E0000E616F60C015F0120000015E
:1000A0008795FF0E926F040E126E0C0E176E000EE7
:1000B000156E310E106E180E0E6E00018C810B8CB9
:1000C0000B8E000E0001636F000E646F010EFF0BBC
:1000D00038E0000162516351625DE86AD8A4010E04
:1000E0000001656F6551FF0B2BE062C063F0645146
:1000F0006453E86AD8B4010E0001666F6651FF0BC5
:1001000005E01AEC00F006B000D01AD000016451EE
:10011000010E645DE86AD8B4010E0001676F675193
:10012000FF0B0EE06251010B686F6851FF0B03E09B
:10013000FF0E156E02D0000E156E06A000D000D086
:04014000C5D712000D
:00000001FF
