:020000040000FA
:100000008DEF00F0938094948B9412000001755151
:10001000000E755DE86AD8A002D0D8A4010E0001D8
:10002000766FFF0B18E0640E746F00017451000EC0
:10003000745DE86AD8A002D0D8A4010E0001776FE1
:10004000FF0B04E07451FF0F746FEFD7000175517F
:10005000FF0F756FDBD71200E86A81B0010E000157
:100060006E6F000E6E5DE86AD8B4010E00016F6F0E
:10007000FF0B15E00A0E756F06EC00F0E86A81B020
:10008000010E706F000E705DE86AD8B4010E0001B9
:10009000716FFF0B03E0010E120000D000D0000EC4
:1000A000120000016E51000E6E5DE86AD8A002D009
:1000B000D8A4010E0001726FFF0B2EE06F51000EED
:1000C0006F5DE86AD8A002D0D8A4010E0001736F5A
:1000D000FF0B06E08B846FC075F006EC00F000D0DB
:1000E00000016F510A0E6F5DE86AD8A0010E000191
:1000F000706FFF0B0CE08B940A0E6F510A5C756FEA
:100100000A0E6F510A5C716F06EC00F000D000011E
:100110006E51FF0F6E6FC5D7120002EC00F0000E9B
:100120000001616F010EFF0B7AE02CEC00F0000182
:10013000646F010E645DE86AD8B4010E0001656F5A
:10014000FF0B25E06151010F616F030E615DE86AED
:10015000D8A002D0D8A4010E0001666FFF0B03E007
:10016000000E616F00D0E86A81B0010E0001676F78
:10017000000E675DE86AD8B4010E0001686FFF0BDE
:1001800005E00A0E756F06EC00F0EDD700D0000117
:100190006151000E615DE86AD8B4010E0001696F1B
:1001A000FF0B02E08B943AD000016151010E615DBA
:1001B000E86AD8B4010E00016A6FFF0B07E0030E76
:1001C0006F6F050E6E6F51EC00F028D00001615189
:1001D000020E615DE86AD8B4010E00016B6FFF0B7F
:1001E00007E0080E6F6F050E6E6F51EC00F016D031
:1001F00000016151030E615DE86AD8B4010E00018F
:100200006C6FFF0B0BE08B84320E756F06EC00F009
:100210008B94320E756F06EC00F000D083D712007D
:00000001FF
