:020000040000FA
:020000002A28AC
:08000800090083120313310803
:10001000003C031829280030B300B40083120313F6
:100020003308313C031C23283308B5003408B600DC
:100030000130B5070318B60A0030B6073508B3001B
:100040003608B4000E2883120313B1033808B20037
:10005000052808008316031307110F308504851542
:1000600083128515FF30A3009715171592141215EA
:100070000030A400A5000130A60083120313240859
:10008000A2002608031959282408A7002508A8005B
:100090000130A7070318A80A0030A8072708A40002
:1000A0002808A5002408F93C031858280030A600A9
:1000B0006F28831203132408A9002508AA00013021
:1000C000A902031CAA030030AA022908A4002A08D6
:1000D000A5002408003C031C6F280130A600023054
:0E00E00083120313B1000030B20005203D284A
:00000001FF
